:100000000C94DF020C94FC020C94FC020C94FC0295
:100010000C94FC020C94FC020C94FC020C94FC0268
:100020000C94FC020C94FC020C9483130C94C512E7
:100030000C94B3150C94FC020C94FC020C94FC027E
:100040000C94FC020C94FC020C94FC020C94FC0238
:100050000C94FC020C9472150C94FC020C94FC029F
:100060000C94FC020C94FC020C94FC020C94FC0218
:100070000C94FC020C94FC020C94FC020C94FC0208
:100080000C94FC020C94FC020C94FC020C94FC02F8
:100090000C94FC020C94FC020C94FC020C94FC02E8
:1000A0000C94FC020C94FC020C94FC02DF03E403AD
:1000B000EE03E203E703EC03EA039C059C05CF058E
:1000C000CF053A065707570757075806CC06DD06EF
:1000D000DD06BE08C108C408C708CA08CD08D00894
:1000E000DD100411AD120411AD1250117311AD12D7
:1000F0006812781235002B002900E100E0000000B2
:100100001E00140004001D00E3004D001F001A0033
:1001100016001B00E200E2002000080007000600B5
:10012000E2002C002100150009001900E2004A003D
:10013000220017000A00050000006400015301536B
:10014000000003530000640204533000000032003A
:100150000000AE0023001C000B0011000000AB00EB
:10016000240018000D00100050004B0025000C006A
:100170000E00360051002800260012000F00370044
:1001800052002A0027001300330038004F004E00B1
:100190002D002F003400E500E600000029000100DA
:1001A00001000100010000003A001E0220022202AC
:1001B0002E00B85D3B001F02210223020100B75D43
:1001C0003C002F0226022F000100B35D3D003002EB
:1001D000270230000100B65D3E00310235003502D5
:1001E0000000C45C01000100000001000000CA5CC6
:1001F00001000100000001000000AE003F005200BD
:10020000510024020000AC004000240021001E0028
:10021000620001004100250022001F008500C65C2D
:100220004200260023002000630001004300250255
:100230002E0231002E0001004400450001000100A3
:1002400001000000010001000100010001000000A8
:100250000100010001000100010001000100010096
:100260000100010001000100010001000100010086
:100270000100010001000100010001000100010076
:100280000100010001000100000001000100010067
:100290000000010000000100010001000000010059
:1002A0000000010001000100010001000000010048
:1002B0000100010001000100010001000100010036
:1002C0000100010001000100010001000100010026
:1002D0000100010001000100010001000100010016
:1002E0000100010001000100010000000100010007
:1002F00001000100010000000100010001000100F7
:1003000001000100010001000100010001000100E5
:1003100001000100010001000100010001000100D5
:1003200001000100010001000100010001000100C5
:1003300000000100010001000000010000000100B8
:1003400001000100000001000000010001000100A7
:1003500050000100000001000100010051000100F7
:100360000100010001000100520001000100010034
:10037000010001004F0001005000010001000100D8
:1003800001005200510001000100010001000100C4
:100390004F00000001000100010001000100000009
:1003A0000100010001000100010001000100010045
:1003B000010001000100E000010001000100010056
:1003C000010001000100010001000100E000010046
:1003D0000100010001000100000001000100010016
:1003E0000000010000000100010001000000010008
:1003F00000000100010001000100010000000100F7
:1004000001000100010001000100010001000100E4
:1004100001000100010001000100010001000100D4
:1004200001000100010001000100010001000100C4
:100430000100010001000100010000000501098028
:10044000A101850319012AB700150126B7009501FE
:1004500075108100C0050C0901A101850419012A4C
:10046000A002150126A002950175108100C00501AA
:100470000906A1018506050719E029E715002501F0
:100480009508750181020507190029EF150025015E
:1004900095F0750181020508190129059505750179
:1004A0009102950175039101C00660FF0961A101E8
:1004B0000962150026FF0095207508810209631561
:1004C0000026FF00952075089102C005010906A1CC
:1004D00001050719E029E715002501950875018137
:1004E000029501750881010507190029FF150026ED
:1004F000FF00950675088100050819012905950575
:1005000075019102950175039101C009025B000319
:100510000100A0FA090400000103010100092111F2
:1005200001000122400007058103080001090401C0
:10053000000203000000092111010001222200072E
:1005400005820320000107050303200001090402BE
:10055000000103000000092111010001226D0007C4
:1005600005840320000112010002000000089732F8
:100570007449010001020001160345007200670082
:100580006F0044006F007800200045005A00000012
:1005900028035A0053004100200054006500630006
:1005A00068006E006F006C006F006700790020002B
:1005B0004C00610062007300000004030904112470
:1005C0001FBECFEFDAE0DEBFCDBF11E0A0E0B1E0AB
:1005D000E4E5FDE302C005900D92A636B107D9F718
:1005E00022E0A6E6B1E001C01D92A739B207E1F70B
:1005F0000E943D160C94A81E0C9400001092F0016D
:100600000E943D1A2FEF84E39CE0215080409040EF
:10061000E1F700C000009AE088E10FB6F894A895D1
:10062000809360000FBE90936000FFCFA7E1B0E021
:10063000ECE1F3E00C94211C4B8B5C8B6D8B7E8B7F
:100640008F8B61111092E30186E09E01235F3F4F83
:10065000D901E82F1D92EA95E9F795E0FE0173961E
:10066000D90101900D929A95E1F79C894E895F8995
:100670007B897D879E876F87598B488BF901DE01C7
:10068000179601900D928A95E1F7CE0107960E9488
:10069000900C81113EC086E0FE013796DE01119676
:1006A00001900D928A95E1F7FF81E8856A857B8547
:1006B0006115710531F0EF3F31F481E0FF3F19F42E
:1006C00003C081E001C080E080FD23C02091900143
:1006D00030E0C9010196877099274091C10150E02F
:1006E0008417950779F1F983EA837D836C8396E01B
:1006F000929FD001939FB00D1124AF56BE4FFE01C3
:10070000319601900D929A95E1F7809390010E94A5
:100710001D0C16E08091C10190919001891709F19B
:10072000189FC00111248F569E4F0E94900C882361
:10073000C1F08091C10190E0019687709927809364
:10074000C101E8CF1092F0010E943D1A1092900171
:100750001092C101EAE8F1E086E0DF011D928A957E
:10076000E9F76796E3E00C943D1C982F92959F70F3
:1007700019F0892F24E001C020E0982F96959695D6
:1007800011F02E5F892F982F969509F02F5F822FF9
:100790000895CF93C82F0E94B50356985E98259868
:1007A0002D9826982E9827982F9890E0FC01319745
:1007B000E730F105A8F4EA5AFF4F0C94741D259A0E
:1007C0002D9A0EC0259A2D9A269A2E9A09C0259AFE
:1007D0002D9A04C0259A2D9A269A2E9A279A2F9AF6
:1007E0008C2FCF910895A5E2B0E0E9EFF3E00C94EF
:1007F000191CFC018081918123813481232B31F0EC
:100800009F3F31F491E08F3F19F403C091E001C0A4
:1008100090E090FD8AC37F0185E0DE019196019012
:100820000D928A95E1F7D70112962C9189A19AA190
:10083000222349F00E941919182F682F89A19AA123
:100840000E94891903C00E945519182F69A17AA125
:10085000812F0E946C098C0190911E02F701828108
:10086000992309F44DC0811151C3E0916901E3302E
:10087000A0F481E08E0F80936901F0E0EE0FFF1F7E
:10088000EA5AFD4FD7018D919C919183808382E03C
:100890008983CE0101960E94B714BFEFE3EDF0E328
:1008A000B150E040F040E1F700C0000080916901E4
:1008B000833009F02BC310926901ECE5F2E0A6E564
:1008C000B2E082E692E0318111962C9111973213B9
:1008D0002EC030812C9132132AC0329612968E1778
:1008E0009F0789F784E0898381E080931F028EEF60
:1008F0008A8310921E02CE0101960E94B71406C38D
:1009000090911F029923C1F0811102C087E001C0BC
:1009100086E08983D7018C918A8311968C918B8391
:100920008EEF8C83CE0101960E94B71405C083E040
:10093000898310921F02DBCF033BBDE51B07D1F576
:10094000F70182818823B1F19091230281E0890F20
:100950008770987F853020F4892B8093230202C012
:1009600090932302809123028770FFEF8F9FC00135
:10097000112495958795959587959927909389004A
:100980008093880090938B0080938A0090938D00D1
:1009900080938C00409123025091240260912502A3
:1009A000709126028FE090E00E94EB1C809135024E
:1009B0000E94C903F7018281882309F46BC00C35BA
:1009C0002DE5120709F461C058F401159CE51907DB
:1009D00099F00F3D1C4509F05DC00E940C0B4BC007
:1009E0000E35BDE51B0709F448C008F450C0093AAC
:1009F0001D4509F440C04EC01092F0010E943D1AFE
:100A00002FEF84E39CE0215080409040E1F700C04C
:100A10000000F89481E08093E00080E28093D800A9
:100A20001092C900AFE1BEE41197F1F700C00000D9
:100A30001DBA109268001CBC10BE1FBA10927A003A
:100A400010926E0010926F0010927100109272005E
:100A50001092C9001092BC0014B817B81AB81DB88B
:100A600010BA1092BC0015B818B81BB81EB811BA4D
:100A70000C94003F4BC20E94FE0280916E0282FBEA
:100A8000882780F991E0892703C081E001C080E0D8
:100A90000E94010CD70112968C9112970D911C9116
:100AA000882349F0C8010E941919D82E682FC8015F
:100AB0000E94891904C0C8010E945519D82EB80196
:100AC0008D2D0E946C090E948509B82E192F982E31
:100AD000D70112960C9112971596AC90A2949FE0B4
:100AE000A9228091C2018770B9F00023A9F0812F5B
:100AF000807F803421F080E28B0D883068F0809117
:100B00006E0282FF09C082E00E94E40B8091C20164
:100B10008770DD24D3948111D12CC12EC2948FE033
:100B2000C8228C2D90E08C30910508F0C0C1FC01EA
:100B3000E35AFF4F0C94741D812F807F1F70882310
:100B400011F01295107F0023B9F0112309F49DC113
:100B500080E28B0D883010F0911006C08091F0017A
:100B6000182B1093F00105C08091E301182B10930E
:100B7000E3010E948F0B89C18B2D0E94621A112301
:100B800009F495C180E28B0D883080F1992071F1D4
:100B900010958091E30118231093E3012AC0812F5F
:100BA000807F1F70803211F01295107F8B2D99205D
:100BB00021F0B1E09B16D9F147C080916E0282FD11
:100BC0001BC0002369F0112339F08091F001182B2C
:100BD0001093F0010E948F0B80E00E948E1A67C173
:100BE00080E00E94621A112309F461C1812F0E94E2
:100BF000880B0E948F0B5BC1002381F08091E40180
:100C0000AA2051F0E1E0AE1207C0182B181709F422
:100C10004EC11093E4014BC1812B10C0AA2021F0DA
:100C2000F1E0AF1609F443C10E94820B1FC00023FC
:100C300041F021E02A1508F43AC1812F0E94581A88
:100C400036C1A11034C112C0002319F0AA20A9F3A3
:100C50001CC1AA2059F0893309F026C18FEF97EE05
:100C6000A3E081509040A040E1F71CC1812F0E9479
:100C7000511A1DC1812F86958695837019F0813098
:100C800061F015C1002321F08B2D912F937002C0CC
:100C900080E090E00E941A1610C1002321F08B2DF5
:100CA000912F937002C080E090E00E94041605C16D
:100CB000812F8370A9F50111FEC04B2D42954695F9
:100CC0004770440F440F8B2D8F7090E09C01042ED1
:100CD00001C0220F0A94EAF7B4FE08C08FE090E04A
:100CE00001C0880F4A95EAF7809501C080E016950B
:100CF00016951370123069F088F49091E501113067
:100D000019F0822B892302C0922B892B0E94011A91
:100D1000D2C0822B9091E5018927F8CF822BF6CFA4
:100D2000002319F0812F817001C08695882309F472
:100D3000C2C04B2D429546954770440F440F8B2DF2
:100D40008F7090E09C01042E01C0220F0A94EAF7F4
:100D5000B4FE08C08FE090E001C0880F4A95EAF722
:100D6000809501C080E0169516951370123059F0E9
:100D700078F490913502113019F0822B892309C043
:100D8000922B892B06C0822B90913502892701C0B6
:100D9000822B0E94BE198FC01F70002339F0812F53
:100DA0000E94F5198B2D0E94581A85C08B2D0E9428
:100DB000511A812F0E94E8197EC08B2DB2EF9B162D
:100DC00069F1B91538F0E0EF9E1659F0F1EF9F1672
:100DD00001F157C023EF921641F194EF9916A9F053
:100DE00050C0002369F0A11062C01F7181E090E043
:100DF00001C0880F1A95EAF79091350289271FC024
:100E0000A1E0AA1508F453C0F0CF80916E0282FDD4
:100E100019C0002329F0812F8F7126C00023D9F338
:100E2000812F8F710E94E81942C0002339F01F7191
:100E300081E001C0880F1A95EAF701C080E00E94A6
:100E4000BE1935C0002399F01F71812F0E94F5193A
:100E500080916E0282FF07C0B8E01B9FC001112481
:100E600083608093C201812F0E94F51920C081E028
:100E70000E94E40BE1E0EA15D0F482E00E94E40B6A
:100E800016C0002321F0AA2031F28B2DA6CEAA2075
:100E900039F2893349F4FFEF27EE83E0F150204027
:100EA0008040E1F700C000008B2D0E94621A88EF9D
:100EB0008C0D843010F40E943016DD20B1F080914A
:100EC000C20180FD12C0D70112961C9285958595AE
:100ED00085950E94F519C7010E94F3038091C20114
:100EE0008595859585950E94E81985E0F701DE01D5
:100EF000119601900D928A95E1F709811A81C80136
:100F00000E945519B8010E946C090FC08091C2015E
:100F1000877059F0F7018281882339F080916E0241
:100F200082FF03C082E00E94E40BA596EBE00C94E4
:100F3000351C80E290E09093180180931701809116
:100F4000680181110EC00E942E1B81E08093680110
:100F50002FEF83ED90E3215080409040E1F700C0F7
:100F6000000060E570E080E40E94341B909318015B
:100F700080931701892B09F04EC060E570E080E096
:100F80000E94A71B9093180180931701892B09F0E9
:100F900042C060E570E080E00E94A71B90931801BA
:100FA00080931701892BB9F560E570E08FE30E940B
:100FB000A71B9093180180931701892B61F50E945C
:100FC000FA1B60E570E080E40E94341B90931801E6
:100FD00080931701892BF9F460E570E08CE00E94A2
:100FE000A71B9093180180931701892BA1F460E54A
:100FF00070E080E00E94A71B909318018093170176
:10100000892B49F460E570E08FE30E94A71B909361
:101010001801809317010E94FA1B8091170108950F
:10102000CF93DF9356985E9825982D9826982E9802
:1010300027982F98C8E8D0E08FEF90E099838883B5
:10104000AAE8B0E011969C938E93ECE8F0E09183CF
:101050008083259A2D9A2FEF80E792E021508040DF
:101060009040E1F700C00000269A2E9A2FEF80E70B
:1010700092E0215080409040E1F700C00000279AA4
:101080002F9A2FEF80E792E0215080409040E1F7C7
:1010900000C0000025982D982FEF80E792E02150A6
:1010A00080409040E1F700C0000026982E982FEF76
:1010B00080E792E0215080409040E1F700C00000BE
:1010C00027982F988091230287702FEF829FC0016D
:1010D0001124959587959595879599279983888368
:1010E00011969C938E939183808356985E98259851
:1010F0002D9826982E9827982F98DF91CF910895B4
:10110000CF93E82F873080F58091170190911801D7
:10111000892B09F047C0CE2F60E570E080E40E9483
:10112000341B9093180180931701892BD1F460E54B
:1011300070E082E10E94A71B909318018093170131
:10114000892B79F481E090E001C0880FCA95EAF715
:1011500060E570E080950E94A71B90931801809332
:1011600017010E94FA1B1EC090E0FC013797E73080
:10117000F105C0F4E759FF4F0C94741D209A28988C
:1011800011C0219A29980EC0229A2A980BC0239A3E
:101190002B9808C0529A5A9805C0539A5B9802C07F
:1011A0003E9A4698CF91089520982898219829989A
:1011B00022982A9823982B9852985A9853985B987B
:1011C0003E9846980895CF93873040F58091170157
:1011D00090911801892B59F560E570E081E40E9437
:1011E000341B9093180180931701892B11F0C0E0F4
:1011F00011C080E590E00E94D61B97FF05C0909338
:10120000180180931701F3CFC82FC09510921801D1
:10121000109217010E94FA1B8C2F0AC09FB18FB148
:10122000807F869586959370892B809501C080E09C
:10123000CF9108958098889A8198899A84988C9AF9
:1012400085988D9A86988E9A87988F9A089580E0CF
:10125000089590916D0292FF0DC0282F28712830BB
:1012600019F4877F846006C0282F2471243011F47C
:101270008B7F886093FF0DC0282F2871283119F4C7
:10128000877E846106C0282F2471243111F48B7E5F
:10129000886120916E0220FF0DC0382F38713830E0
:1012A00019F4877F816006C0382F3171313011F415
:1012B0008E7F886021FF0DC0282F2871283119F4F6
:1012C000877E816106C0282F2171213111F48E7E25
:1012D000886194FD877E08957E30A0F4663090F496
:1012E00094E5899FF001112486E0789FE00DF11DBF
:1012F0001124E60FF11DEE0FFF1FEC50FF4F8591FB
:101300009491089580E090E00895CF93DF93823820
:10131000910569F1B0F48133910509F477C048F47F
:101320008932910509F469C08A32910509F473C0C4
:1013300092C08533910509F45BC089339105B9F0FA
:101340008AC0833E910591F138F4803E9105D1F039
:10135000823E910531F17FC0863E9105D9F1873EED
:101360009105E9F1843E910509F075C028C02091EE
:101370006D0220FD5BC021FD59C020916E0223FD4E
:1013800061C069C080916D0280FD4AC080916E028B
:1013900080FF4CC080916D0284FD39C183EE90E0E6
:1013A00038C180916D0282FF3EC0F4CF80916D0202
:1013B00082FD39C080916E0280FD38C0EBCF8091F4
:1013C0006E0281FF39C080916D0284FD20C187EEDD
:1013D00090E01FC180916D0283FF2BC0F4CF8091FC
:1013E0006D0283FD26C080916E0281FD25C0EBCF8A
:1013F00080916D0285FD26C022C080916D0285FD21
:101400001EC080916E0283FF1DC00AC080916D02D4
:1014100086FD1BC01DC080916D0286FD19C015C0E0
:1014200089E390E0F6C082EE90E0F3C080EE90E0B9
:10143000F0C086EE90E0EDC084EE90E0EAC085E377
:1014400090E0E7C089E290E0E4C08AE290E0E1C089
:1014500081E390E0DEC0811532E5930708F05FC0BC
:10146000811541E5940728F0982F8827816F906AAD
:10147000D0C0883E910568F5803E910508F0C9C04E
:10148000883A9105B8F4853A910548F0855AE82FD5
:10149000F0E0E75EFE4F808190E09064BAC081305A
:1014A000910509F4B1C008F4B2C08430910508F484
:1014B000AEC0AFC08F3B910508F0A9C0885AE82F95
:1014C000F0E0EE0FFF1FE45EFE4F80819181946497
:1014D000A0C0811520E59207A0F0AC01437055270C
:1014E00021E030E002C0220F331F4A95E2F78695D3
:1014F000869540E2849FC0011124822B932B9D6826
:1015000088C0811530E4930718F09F70906A81C0FD
:101510009C013A9521153F4108F47BC078C0EC014D
:10152000C11586E5D807E8F5C11525E5D20748F0CD
:101530008C2F0E9429098F7190E0982F8827906244
:1015400068C0C11534E5D30728F09C2F8827846F25
:10155000906A5FC0AE01437055272C2F26952695C3
:10156000C115D34578F481E090E002C0880F991F3F
:101570004A95E2F740E2249F90011124822B932B9D
:101580009C6847C081E090E002C0880F991F4A958F
:10159000E2F740E2249F90011124822B932B9A685A
:1015A00038C0C1152AE5D207F8F4C11539E5D307CB
:1015B00090F08C2F8F700E94290994E0D695C795E2
:1015C0009A95E1F7CF70D0E0DC2FCC27D0699E014F
:1015D000282BC9011EC0C11548E5D407C0F09C2FB7
:1015E0008827806F906A15C0CE0190568115904271
:1015F00070F48D2F8F710E942909282F2F71CE0131
:1016000099279062922B05C081E090E002C080E0B3
:1016100090E0DF91CF91089568EE7EEF80E090E05A
:101620000E94F71C60E082E090E00E94D91C60E01C
:1016300083E090E00E94D91C1092E50160E084E014
:1016400090E00E94D91C64E082E290E00E94D91CE4
:1016500060E085E090E00E94D91C60E086E090E0C8
:101660000E94D91C6FEF87E090E00E94D91C40E0F7
:1016700050E0BA0188E090E00E94EB1C60E08DE051
:1016800090E00E94D91C40E050E0BA0188E190E06F
:101690000E94EB1C60E087E190E00E94D91C40E0D2
:1016A00050E0BA018CE190E00E94EB1C60E070E039
:1016B00080E290E00E94F71C40E050E0BA0188E12F
:1016C00090E00E94EB1C10922302109224021092D0
:1016D00025021092260284E0809323024091230287
:1016E0005091240260912502709126028FE090E0D3
:1016F0000E94EB1C40E050E0BA0183E190E00E94C0
:10170000EB1C08958091E40181111092E401089589
:1017100080959091F00189238093F0010895909134
:10172000F0018091E301982B90936A018091E4018C
:101730008823D9F0892B80936A0180910A0188233C
:1017400031F080916D0287FF02C08EE101C086E01A
:10175000ECE6F1E090E0815028F021912223D9F3CA
:101760009F5FF9CF91110E94820B40E250E063EC41
:1017700071E08AE691E00E949B1E892B21F180E2B4
:10178000EAE6F1E0A3ECB1E001900D928A95E1F771
:10179000E0916402F09165023097A9F080910A010E
:1017A000882359F080916D0287FF07C080916A01FC
:1017B00080936B0186E080936A010280F381E02DC3
:1017C0008AE691E0099508952091C20180958223CF
:1017D0008093C201982F977099F430E0482F082E1B
:1017E000000C550B2417350759F090916E0292FFAB
:1017F00007C08595859585950E94E8191092C201CC
:101800000895CF93C0916E02C2FB992790F9981763
:1018100091F080FBC2F9C0936E0260916D0284E08A
:1018200090E00E94D91C6C2F82E290E00E94D91CAB
:1018300082E00E94E40BCF9108958091C1019091C4
:101840009001891719F08F5F8770FBCF08950F9370
:101850001F93CF93DF9380918F0182958F7009F052
:101860005AC080918C01882309F455C08091C10130
:101870001091900160918A0170918B01C0918D014E
:10188000D0918E0191E06F3F09F090E0292F06E0A2
:10189000811709F440C0209721F07F3F21F030E00C
:1018A00003C031E001C0322F90E030FD31C0089F0D
:1018B000F001099FF00D1124DF01AF56BE4F1196C4
:1018C0003C911197371324C03C91361321C01296D6
:1018D0003C91129731111CC013964D915C91149755
:1018E0004C1B5D0B483C510598F480918F018F7023
:1018F000806180938F01EA56FE4F80818F708061F6
:1019000080838AE891E00E94F3030E941D0C03C0CB
:1019100001968770BDCFDF91CF911F910F910895F0
:10192000A1E1B0E0E6E9FCE00C94191C8C0185E033
:10193000F801DE011D9601900D928A95E1F7F801FC
:10194000E28090918A0160918B0140918D015091CC
:101950008E014115510531F06F3F31F481E09F3F19
:1019600019F403C081E001C080E0F82FF1709F2ED0
:1019700080FD1BC1F80130812181C380D4808AE8B9
:10198000A82E81E0B82EF0908C01F601E41BF50B37
:10199000FF2009F4C7C080918F01E83CF10508F0F1
:1019A00092C0482F407F09F051C0621311C09313B9
:1019B0000FC0FE2CE1100CC08F70806180938F01EE
:1019C000C5010E94F30380918F01F80185832AC12C
:1019D000C114D10431F02F3F31F481E03F3F19F4BD
:1019E00003C081E001C080E080FD03C081E08E255E
:1019F00002C080E090E0F82FF170FF2E80FF1CC045
:101A00008091C1014091900156E0841709F4E8C02B
:101A100090E0589FF001599FF00D1124EF56FE4FB2
:101A20006181261306C06081631303C06281E612E0
:101A300003C001968770E9CFFE2CEE2009F4F2C0B6
:101A400080918F01816080938F0149C0621306C02D
:101A5000931304C0E11002C0F80186C0C8010E94BF
:101A6000061A882351F1EE2041F120918F01822F37
:101A700082958F7090E0029774F080918A01909126
:101A80008B0198878F831986DB86CA862C87CE01C7
:101A900007960E94F30386E0F801AAE8B1E00190FE
:101AA0000D928A95E1F70E94270C0AC06217C9F0CF
:101AB000C8010E94061A81111EC0C8010E94F303CA
:101AC000FF24F394AFC0482F407F81F78AE891E06C
:101AD0000E94F30386E0F50111928A95E9F7F12C53
:101AE000A1C09313E5CFE110E3CFF8018583C801CE
:101AF0000E94F30354C0EE2001F320918F01822F46
:101B000082958F7090E0029734F280918A019091D3
:101B10008B019A8389831B82DD82CC822E83CE0146
:101B20000196B7CFE83CF105D0F5FE2CEE2029F266
:101B3000621327C0931325C020918F0120FD18C088
:101B4000822F82958F70482F50E04115510581F00A
:101B5000F80125834F30510541F08F5F982F929502
:101B6000907F822F8F70892B8583C8010E94F30399
:101B700086E0F801AAE8B1E001900D928A95E1F7BC
:101B800051C0C8010E94061A811185CF80918F0132
:101B9000816080938F01C8010E94F30343C086E0F7
:101BA000F50111928A95E9F73DC0EE2009F485CF41
:101BB000C8010E94061AF82E882309F47ECF86E019
:101BC000F801AAE8B1E001900D928A95E1F78091C1
:101BD0008A0190918B010E9448190E94270C22C013
:101BE0003D872E878D859E850E944819292F229535
:101BF0002F70223028F49F7039F0811105C00BC07E
:101C0000243028F49F7049F4805E883020F0C801A9
:101C10000E94F3039F2CF92C05C0F8019581907F59
:101C200099F7F9CF8F2D6196EBE00C94351CA0E06D
:101C3000B0E0EDE1FEE00C941C1C80911701909146
:101C40001801892B91F08091E6018F5F8093E60166
:101C500081110BC00E94990790E090931801809326
:101C60001701892B11F40E94100807E212E0780195
:101C7000D0E0C0E087E0C82ECC0E8C2F0E948008F8
:101C80008C2D0E9480088C2F0E94E3088F73F7012F
:101C90009081891721F08083DD24D39401C0D12C59
:101CA0008C2D0E94E3088F73F7019781891719F033
:101CB000878381E001C080E0D82ADD290E94D40812
:101CC000CF5FFFEFEF1AFF0AC730A1F61092EB01CA
:101CD000C091EA01CC2309F4C4C00E94A715209149
:101CE000E8013091E901AC01421B530B9A0190933A
:101CF000E9018093E8014F3F510509F018F4452BA5
:101D000019F102C02FEF30E01092EA011092E701C2
:101D1000E0912102F0912202AF01425F5F4F90E01B
:101D200030E08081882341F0281718F010829C2F22
:101D300003C0821B80833C2F3196E417F50789F797
:101D40003093EA019093E701DD2309F47BC0E09131
:101D50002102F09122028091EB019091EA01A8E327
:101D6000B2E0AF01425F5F4F6EE1E80128813C9134
:101D7000321779F0308131110CC060832C93988137
:101D80009227282F30E0292B81E0232B09F480E0D3
:101D900091E0319611960F5F1F4FE417F50729F771
:101DA0008093EB019093EA01C091EB0120911E0218
:101DB0008091ED019091EE012223C9F1892B31F43C
:101DC00025982D9826982E9827982F988091ED0188
:101DD0009091EE019170892B79F48091EC01882328
:101DE00019F026982E9802C0269A2E9A9091EC010E
:101DF00081E089278093EC018091ED019091EE01C3
:101E00008130984750F010921E02809135020E9456
:101E1000C9031092EE011092ED018091ED019091B5
:101E2000EE0101969093EE018093ED011EC0892B87
:101E3000E1F01092EE011092ED01809135020E94C6
:101E4000C90313C081E09091E701992309F4ACCF55
:101E500081117DCF0E94A7159093E9018093E8013D
:101E600076CFD111F7CF80E0EECF8C2FCDB7DEB794
:101E7000E8E00C94381C8091160287FF11C0809115
:101E8000E80082FD05C0809120028111F8CF11C0C9
:101E90008091E8008B770BC080912002882349F065
:101EA0008091E80080FFF8CF8091E8008E778093E2
:101EB000E8000895982F973068F59093E9009817F7
:101EC00039F07091EC002091ED005091F00003C0CA
:101ED000242F762F50E021FD02C09F5FECCF309180
:101EE000EB003E7F3093EB003091ED003D7F30936F
:101EF000ED003091EB0031603093EB007093EC001B
:101F00002093ED005093F0002091EE0027FDE5CFE7
:101F100080E008958F708093E90081E0089520911A
:101F20001C0230911D022617370748F06115710514
:101F300039F42091E8002E772093E80001C0B90120
:101F4000FC0120E06115710579F180912002882360
:101F5000F1F18530F1F18091E80083FD3CC0809182
:101F6000E80082FD2EC08091E80080FFEBCF209139
:101F7000F3008091F20090E0922B6115710551F011
:101F80008830910538F421912093F1006150710956
:101F90000196F3CF21E0089709F020E08091E80056
:101FA0008E778093E800CECF2111CFCF0AC08091E9
:101FB0002002882361F0853061F08091E80083FD84
:101FC0000AC08091E80082FFF2CF80E0089582E0AD
:101FD000089583E0089581E008950895BC0184E0A8
:101FE0000E9448150895BC0183E00E944815089599
:101FF000AAE2B0E0EEEFFFE00C94211CE6E1F2E093
:102000008EE192E02091F10021938E179F07D1F786
:1020100080911702833009F463C030F4813071F08D
:10202000823009F49FC0B6C08A3009F48BC08B306F
:1020300009F46EC0893009F0ADC020C0809116024D
:10204000813A09F0A7C08091E800877F8093E8007B
:1020500080911A0290911B02892B21F460E283EF98
:1020600091E003C060E080E090E070E00E948F0F9C
:102070008091E8008B778093E8008CC080911602F5
:10208000813209F087C080911A0290911B0200975B
:1020900019F0029709F07EC08091E800877F809355
:1020A000E8008091E80082FD05C080912002811146
:1020B000F8CF70C02091F3008091F20090E0922B55
:1020C000029731F48091F100813011F0863021F4D3
:1020D0008091F1008093F2018091E8008B7756C0E7
:1020E00080911602813A09F055C080911A029091B0
:1020F0001B02892B09F04EC08091E800877F8093F6
:10210000E8008091E80080FFFCCF80910A0139C08F
:10211000809116028132F1F580911A0290911B0292
:10212000892BC1F58091E800877F8093E8000E94A9
:102130003B0F8091180280930A011092F0010E94D7
:102140003D1A28C080911602813221F58091E80065
:10215000877F8093E8000E943B0F80911902809353
:10216000F10118C080911602813AA1F48091E80033
:10217000877F8093E8008091E80080FFFCCF80910A
:10218000F1018093F1008091E8008E778093E80060
:102190000E943B0F8091E80083FFDFC1809116020F
:1021A00090911702492F50E04A30510508F0D5C1EF
:1021B000FA01E059FF4F0C94741D803821F08238E9
:1021C00009F0CBC108C080911302909114029923A9
:1021D00089F082600FC080911A028F70873008F0FA
:1021E000BCC18093E9008091EB0085FB882780F9D2
:1021F0001092E9009091E800977F9093E800809317
:10220000F1001092F10070C1282F2D7F09F0A5C1B7
:10221000882319F0823061F0A0C1809118028130CA
:1022200009F09BC1933009F080E0809314022EC026
:102230008091180281112AC080911A028F702FEFAD
:10224000280F263008F089C18093E9002091EB0027
:1022500020FF1CC0933021F48091EB00806214C0F9
:102260009091EB0090619093EB0021E030E0A901A8
:1022700002C0440F551F8A95E2F74093EA0010927E
:10228000EA008091EB0088608093EB001092E900F7
:102290008091E800877F8093E8000E943B0F5DC13A
:1022A00081115BC1109118021F778091E300807843
:1022B000812B8093E3008091E800877F8093E80082
:1022C0000E943B0F8091E80080FFFCCF8091E300EB
:1022D00080688093E300111102C082E001C083E0B6
:1022E000809320023AC18058823008F036C1209194
:1022F0001802309119022C3D53E0350779F583E03F
:102300008A838AE289834FB7F894DE01139620E02E
:102310003EE051E2E32FF0E050935700E49120FFBC
:1023200003C0E295EF703F5FEF708E2F90E0EA30D0
:1023300010F0C79601C0C0968D939D932F5F2431F6
:1023400049F74FBF8091E800877F8093E8006AE2F9
:1023500070E0CE0101960E948F0FB4C080911A02E6
:1023600090911B02432F552743305105A9F068F483
:102370004130510509F400C14230510509F0EDC06A
:102380008BE590E0EBE0F5E04BC04132510529F1DF
:102390004232510589F1E1C0C90199278130910587
:1023A000A1F058F0029709F0D8C0E8E7F5E0E49111
:1023B0008E2F90E0E8E7F5E030C0EAEBF5E0E4913D
:1023C0008E2F90E0EAEBF5E028C0E0E9F5E0E4913B
:1023D0008E2F90E0E0E9F5E020C08330910508F011
:1023E000BCC0880F991FFC01ED5AFE4F0190F0818F
:1023F000E02D89E090E014C08330910508F0ADC075
:10240000FC01EE0FFF1FE35BFE4F0190F081E02D1A
:10241000DC01A65BBE4F8C9190E0009709F49DC053
:102420002091E800277F2093E80020911C02309142
:102430001D022817390708F4C90140E0009789F107
:1024400020912002222309F43DC02530D9F12091AA
:10245000E80023FD37C02091E80022FD2FC0209125
:10246000E80020FFEBCF4091F3002091F20030E034
:10247000342B009759F02830310540F444914093B3
:10248000F100319601972F5F3F4FF3CF41E02830A5
:10249000310509F040E02091E8002E772093E80014
:1024A000CDCF4111CDCF0AC080912002882351F0B9
:1024B000853041F08091E80083FD04C08091E80000
:1024C00082FFF2CF8091E8008B778093E80045C0CF
:1024D000803809F042C08091E800877F8093E8004F
:1024E000809115028093F1008091E8008E77D3CE21
:1024F000811133C080911802909119029927029797
:1025000064F58091E800877F8093E80010911802BD
:10251000109315020E943B0F111106C08091E30039
:1025200087FD02C081E001C084E08093200242E088
:1025300061EC81E00E945A0F42E261EC84E00E946B
:102540005A0F42E261EC82E00E945A0F42E260ECD4
:1025500083E00E945A0F809120028091E80083FF5F
:1025600010C08091E800877F8093E8008091EB00A5
:1025700080628093EB0005C082E190E0E6E6F5E042
:102580004FCFAA96E3E00C943D1C1F920F920FB61A
:102590000F9211242F933F934F935F936F937F93E9
:1025A0008F939F93AF93BF93CF93DF93EF93FF935B
:1025B000C091E900CF708091EC00D82FD17080FDE0
:1025C000D0E81092E9008091F000877F8093F000BE
:1025D00078940E94F80F1092E9008091F0008860D2
:1025E0008093F000CD2BCF70C093E900FF91EF9165
:1025F000DF91CF91BF91AF919F918F917F916F911B
:102600005F914F913F912F910F900FBE0F901F90B0
:102610001895E8EDF0E080818E7F80831092E200D3
:102620001092DA001092E100A0EEB0E08C9181608F
:102630008C9380818F77808319BCA7EDB0E08C915B
:102640008E7F8C9380818F7E80831092EF0108951E
:10265000A0E0B0E0EEE2F3E10C941C1CC8EDD0E089
:1026600088818F7E8883E7EDF0E0808181608083C0
:1026700084E082BF81E08093EF0188818E7F888330
:1026800002EE10E0F80110821092DA0081EEC82EFE
:10269000D12CF601108288818F77888388818068A9
:1026A000888388818F7D888319BC109220021092C4
:1026B0001502109214021092130290EEE92EF12CE2
:1026C000F70180818B7F808388818160888342E0ED
:1026D00060E080E00E945A0FF60180818E7F808347
:1026E000F801808181608083808188608083F70128
:1026F00080818E7F8083888180618883CDB7DEB7BB
:10270000E8E00C94381C1F920F920FB60F92112420
:102710002F933F934F935F936F937F938F939F93E9
:10272000AF93BF93EF93FF938091E10082FF09C0C5
:102730008091E20082FF05C08091E1008B7F809351
:10274000E1008091DA0080FF2AC08091D80080FFEC
:1027500026C08091DA008E7F8093DA008091D900C4
:1027600080FF18C080E189BD82E189BD09B400FE07
:10277000FDCF81E0809320028091EF0181110FC095
:102780000E9409130E9428138091E20084608093C4
:10279000E20005C019BC109220021092EF01809156
:1027A000E10080FF17C08091E20080FF13C080919C
:1027B000E2008E7F8093E2008091E200806180934E
:1027C000E2008091D80080628093D80019BC85E037
:1027D000809320028091E10084FF30C08091E2006C
:1027E00084FF2CC080E189BD82E189BD09B400FE6F
:1027F000FDCF8091D8008F7D8093D8008091E1003B
:102800008F7E8093E1008091E2008F7E8093E200D2
:102810008091E20081608093E2008091150288231C
:1028200011F084E007C08091E30087FD02C081E0E1
:1028300001C083E080932002809120028091E1001A
:1028400083FF27C08091E20083FF23C08091E100D5
:10285000877F8093E10082E080932002109215022E
:102860008091E1008E7F8093E1008091E2008E7F75
:102870008093E2008091E20080618093E20042E078
:1028800060E080E00E945A0F8091F00088608093A1
:10289000F000FF91EF91BF91AF919F918F917F9148
:1028A0006F915F914F913F912F910F900FBE0F90BD
:1028B0001F9018952091E4003091E50095E6409135
:1028C000EC00842F817040FF23C08091E80080FDE0
:1028D0001DC080912002882399F0853099F0809165
:1028E000EB0085FD11C04091E4005091E5002417F4
:1028F000350729F3915011F09A01E1CF84E0089552
:1029000082E0089583E0089581E0089580E00895CD
:102910004091E80042FFDDCF0895EF92FF920F93C0
:102920001F93CF93DF937C018B010E945A14811176
:1029300019C0E70101151105A1F08091E80085FD9E
:102940000AC08091E8008E778093E8000E945A14B4
:10295000882381F307C089918093F1000150110908
:10296000E9CF80E0CDB7DEB7E6E00C943A1CCF9318
:1029700020912002243029F5C091E900CF703091D8
:10298000EC00232F217030FD20E8C22B22E02093A1
:10299000E9002091E80020FF11C040E050E060E233
:1029A00070E00E948D14882321F010921E02109274
:1029B0001F028091E8008E778093E800CF70C0936B
:1029C000E900CF91089508958091F2010895CF9381
:1029D000DF9320910A01222339F020916D0227FF15
:1029E00003C060E224E002C068E021E02093E90037
:1029F0002FEF3091E800215035FD06C035ED3A95B6
:102A0000F1F700002111F5CF2091E80025FF1DC04E
:102A1000EC0180910A01811105C040E050E068E0BE
:102A200070E003C070E040E050E0CE010E948D14E1
:102A30008091E8008E778093E80080E2FE01A3EFAA
:102A4000B1E001900D928A95E1F7DF91CF91089561
:102A5000CF93DF930E94951C66E070E00E94601D9A
:102A6000D82F0E94951C6EE070E00E94601DC82F58
:102A70006D2F782F80E00E946C090497C59718F499
:102A80008D2F9C2F02C00E942815DF91CF910895B1
:102A900080936F02709371026093700280912002A4
:102AA0008430F9F48093E9008FEF9091E800815031
:102AB00095FD06C095ED9A95F1F700008111F5CFCF
:102AC0008091E80085FF0DC040E050E063E070E0D9
:102AD0008FE692E00E948D148091E8008E778093BB
:102AE000E800089578941F920F920FB60F92112468
:102AF0008F939F93AF93BF938091690290916A02E5
:102B0000A0916B02B0916C020196A11DB11D809342
:102B1000690290936A02A0936B02B0936C02BF911A
:102B2000AF919F918F910F900FBE0F901F901895AE
:102B30009C014FB7F8948091690290916A02A0912C
:102B40006B02B0916C024FBF821B930B08952FB79D
:102B5000F8948091690290916A02A0916B02B09101
:102B60006C022FBF08951F920F920FB60F9211247F
:102B70008F939F93AF93BF9380916802811113C08D
:102B80008091690290916A02A0916B02B0916C02EF
:102B90004196A11DB11D8093690290936A02A09392
:102BA0006B02B0936C02BF91AF919F918F910F9088
:102BB0000FBE0F901F90189520910A012223C9F093
:102BC00020916D0227FF15C0262F26952695269564
:102BD0002E31C8F4FC01E20FF11D677081E090E036
:102BE00001C0880F6A95EAF78095928189238283D4
:102BF0000895FC0106962281621301C0128231966B
:102C0000E817F907C1F7089520916602309167022D
:102C10002817390771F09093670280936602E0915C
:102C20006402F0916502309721F00084F185E02D77
:102C3000099508952091620230916302281739079F
:102C400071F09093630280936202E0916402F091CC
:102C50006502309721F00680F781E02D09950895EF
:102C6000E0916402F0916502309729F00190F081C3
:102C7000E02D0995089580E00895ACE5B0E0E3E427
:102C8000F6E10C94151C85B7806885BF85B7806810
:102C900085BF84B7877F84BF0FB6F894A8958091CD
:102CA0006000886180936000109260000FBE90E029
:102CB00080E80FB6F89480936100909361000FBE96
:102CC00087E299E090936701809366010E9409135F
:102CD0000E9428138091E20084608093E20078943F
:102CE000809120028823A1F01091E9001F7090913B
:102CF000EC00892F817090FD80E8182B1092E9007C
:102D00008091E80083FD0E94F80F1F701093E90086
:102D100082E084BD93E095BD9AEF97BD80936E00ED
:102D20000E94990790E090931801809317010E94E8
:102D3000D4080E941A09E7E2F2E0A8E3B2E0119297
:102D40001D9222E0E533F207D1F78EE090E00E9479
:102D50007A1D8093210290932202FC010E9611921B
:102D6000E817F907E1F789EA8093800089E080930A
:102D7000810024982C983F988AB18F7C8AB96E98EC
:102D8000479A8BB180638BB9769A8FE090E00E946E
:102D9000BD1C6093230270932402809325029093BC
:102DA000260267708FEF689FB001112475956795B3
:102DB0007595679577277093890060938800709365
:102DC0008B0060938A0070938D0060938C000E944A
:102DD000100880E090E00E94C31C883E9E4F11F0D6
:102DE0000E940C0B82E090E00E94B51C809346028A
:102DF00084E090E00E94B51C182F82E290E00E94CF
:102E0000B51C212F30E0382B30936E0220936D02D9
:102E100083E090E00E94B51C0E94011A8091350267
:102E20000E94C9038BE091E0909365028093640255
:102E300038E1C32ED12C46E4E42E42E0F42E8091FA
:102E40002002853009F054C020E4B22E00E112E1E6
:102E500080912002853009F045C0809120028430A5
:102E600009F1109268020FB6F894A895C09260001C
:102E70000FBEB092600083B7817F846083BF83B749
:102E8000816083BF7894889583B78E7F83BF0FB6A8
:102E9000F894A895809160008861809360001092FA
:102EA00060000FBE80911402882391F20E9499075E
:102EB00090E090931801809317010E94D4080E941B
:102EC0001A09E8E3F2E01192EE16FF06E1F70E941C
:102ED000170EE8E3F2E0819181117DC1EE16FF0645
:102EE000D1F7B6CF1092F0010E943D1A0E94301621
:102EF0000E94170E97E4A92E92E0B92EA8E3B2E043
:102F0000F50191918D91892792E0E535F90719F046
:102F10008823B9F332C0811130C00E94A7158C01FB
:102F200080913602909137020817190709F473C08F
:102F30008FEF64968FAF649765968FAF65976696AF
:102F40001FAE66970E94A7158160782F68969FAF85
:102F50008EAF689764964FAD649765965FAD659741
:102F600066966FAD669768968FAD68970E94160358
:102F700010933702009336024EC088E3882E82E019
:102F8000982E10E0F40151904F01F5016080652406
:102F900081F100E077247394862D872121F16996D1
:102FA0000FAF69976A961FAF6A9791E0852D8721C9
:102FB00009F490E06B969FAF6B970E94A715816014
:102FC000782F6D969FAF8EAF6D9769964FAD6997CD
:102FD0006A965FAD6A976B966FAD6B976D968FAD86
:102FE0006D970E9416030F5F770C0630A9F6F50166
:102FF00050821F5FFFEFAF1ABF0A1E3009F0C2CF29
:103000008FB7F8944091690250916A0260916B0207
:1030100070916C028FBF0E943016909155028917F3
:1030200069F0809355028FB7F894409169025091EE
:103030006A0260916B0270916C028FBF80912002D6
:10304000843009F0FCCE83E08093E9008091E800B1
:1030500082FFF5CE8091E80085FF22C00E945A14BD
:1030600081111CC000E210E05E0121E2A20EB11C41
:1030700008C08091F100F50181935F0101501109B1
:1030800069F08091E80085FDF4CF8091E8008B77AE
:103090008093E8000E945A14882399F391E001C0BC
:1030A00090E08091E8008B778093E800992309F401
:1030B000C6CE89A18130E9F158F1823021F0843007
:1030C00009F47DC0BCCE8BA19AA190935602809347
:1030D00057028DA19CA190935802809359028FA111
:1030E0009EA190935A0280935B0242E150E063E21A
:1030F00070E0CE018F5B9F4F0E94A51C84E0898306
:1031000081E080931F028EEF8A8310921E020CC012
:1031100019828CE0E9E5F1E0DE01129601900D9252
:103120008A95E1F78EEF8D87CE0101960E94B71444
:1031300086CE0CE512E00E942815F8018193919348
:103140008F01F2E002361F07B1F781E08983909189
:103150005C029A8390915D029B8390915E029C83B6
:1031600090915F029D83909160029E839091610295
:103170009F839EEF988780931E02CE0101960E9446
:10318000B71442E150E063E270E0CE0101960E9484
:10319000A51CFE01319682E183301CF09189928B4F
:1031A00001C0128A815031978F3FB1F742E150E060
:1031B00063E270E0CE0101960E94C91C40CE80916E
:1031C0001F02882309F43BCE80E00E94BE198AA129
:1031D0000E94F51934CE09BD19BD09B400FEFDCF1A
:1031E0008091D8008F7D8093D8008091E00082602C
:1031F0008093E0008091E00081FDFCCF1092F0010F
:103200000E943D1AFFEF23EC89E0F15020408040FE
:10321000E1F700C000001CCE80E090E00E941A168A
:1032200080E090E00E9404161092E3010E948F0B50
:103230000895CF92DF92FF920F931F93CF93DF9366
:103240006C01009135028091E501082BC7E0D0E0C8
:1032500010E0C8010C2E02C0959587950A94E2F7FC
:1032600080FD04C02197A8F7F12C09C0FC2EB601FF
:103270008C2F0E946C090E948509019799F38F2D6C
:10328000DF91CF911F910F91FF90DF90CF90089524
:10329000CF93DF93EC010E941919BE010E946C09C3
:1032A0000E948509DF91CF910895292F9E3078F5EE
:1032B000863068F590E036E0239F800D911D112443
:1032C000682F677023E0969587952A95E1F7FC01B2
:1032D000EE0FFF1FE80FF91FEE58FD4F40E050E0E2
:1032E00080E0219130E0062E02C0369527950A94A1
:1032F000E2F721703327042E01C0220F0A94EAF767
:10330000822B4F5F5F4F4330510559F7089580E09E
:103310000895292F9E3088F5863078F590E036E0C4
:10332000239F800D911D1124282F277051E001C08B
:10333000550F2A95EAF723E0969587952A95E1F7A8
:10334000FC01EE0FFF1FE80FF91FEE58FD4F20E0C4
:1033500030E070E04081CB01022E02C09695879547
:103360000A94E2F7817081958427852384278193CD
:103370002F5F3F4F2330310569F70895A0E2B0E099
:10338000E4ECF9E10C94211C0E94C903182F8091F0
:103390001F028823A9F02FEF80E792E021508040A0
:1033A0009040E1F700C0000085E08983812F0E94F2
:1033B000B5038A838EEF8B83CE0101960E94B714EA
:1033C000109335020E940C19A096E3E00C943D1C6A
:1033D00021E030E001C0220F8A95EAF72095809124
:1033E000350282230E94BE19089521E030E001C019
:1033F000220F8A95EAF780913502822B0E94BE192E
:1034000008958093E5010E940C190895CF93FC0163
:103410008081918123813481232B31F09F3F31F4CE
:1034200091E08F3F19F403C091E001C090E0C92FF3
:10343000C17090FD1CC0808191810E9448199295B5
:103440009F70963079F010F4925001C09A509230EB
:1034500088F4803F71F018F4883E60F40AC0843F1D
:1034600049F407C0883E28F0813F21F402C0C0E043
:1034700001C0C1E08C2FCF91089580910A0188236B
:1034800031F080916D0287FF02C08EE101C086E0BD
:10349000ECE6F1E0DF011D928A95E9F70E940C1934
:1034A0000895882321F00E94880B0E948F0B0895B5
:1034B000882339F09091F001892B8093F0010E94CC
:1034C0008F0B0895882349F1682F8CEF860F813A7E
:1034D00028F48AE691E00E94DC150CC080E2860F99
:1034E000883058F4677081E001C0880F6A95EAF768
:1034F0000E94880B0E948F0B08958BE5860F833006
:1035000028F480E090E00E941A160895685A673106
:1035100020F480E090E00E9404160895CF93882361
:1035200009F49AC0C82F8CEF8C0F813A08F05EC066
:1035300080910A018823E1F080916D0287FF18C015
:10354000EC2FE695E695E695F0E0E659FE4F828190
:10355000282F30E04C2F477081E090E002C0880FA8
:10356000991F4A95E2F782239323892B59F411C0BE
:10357000ECE6F1E08191C81729F081E0E237F80725
:10358000C9F707C06C2F8AE691E00E94DC150E9403
:103590008F0B80910A018823C9F080916D0287FF0B
:1035A00015C0AC2FA695A695A695B0E0A659BE4F1E
:1035B000C77081E090E001C0880FCA95EAF71296C3
:1035C0009C911297892B12968C9320C0ACE6B1E0A7
:1035D000EFEF80E09D91C917C9F0EF3F19F4911109
:1035E00001C0E82F8F5F8630A9F72DC080E28C0FD5
:1035F000883078F4C77081E090E001C0880FCA95E8
:10360000EAF79091F001892B8093F0010E948F0BD3
:1036100023C0EBE5EC0FE33040F4F0E0E75EFE4F53
:10362000808190E00E941A1617C0C85AC731A0F4D2
:10363000EC2FF0E0EE0FFF1FE45EFE4F80819181E2
:103640000E94041609C0EF3F09F30E2E000CFF0B79
:10365000E659FE4FC283DACFCF9108951092B90098
:103660008CE08093B8000895A0E0B0E0EAE3FBE1CD
:103670000C94191CB82EEB010E94A7156C01C431E3
:10368000D10558F0CF3F8FEFD80759F0CE0164E154
:1036900070E00E94FE1B7B0107C0EE24E394F12C36
:1036A00003C025E0E22EF12C84E8A82E94EA992E9E
:1036B0001092BC009092BC000E94A7158C018091D2
:1036C000BC0087FD07C0C8010E949815E816F906DE
:1036D000B0F729C08091B900887F883041F080918F
:1036E000B900887F803119F00FEF1FEF1EC0B09234
:1036F000BB00A092BC000E94A7158C018091BC0069
:1037000087FD07C0C8010E949815E816F906B0F7B2
:103710000AC08091B900887F883111F0803421F788
:1037200000E010E00EC00EEF1FEFCF3F8FEFD80785
:1037300009F4BECFC6010E949815C817D90708F032
:10374000B7CFC801CDB7DEB7EBE00C94351C0F93B3
:103750001F93CF93DF93EB018093BB0084E88093AA
:10376000BC000E94A7158C018091BC0087FD0DC094
:10377000CF3F8FEFD807C1F3C8010E949815C81733
:10378000D90790F78EEF9FEF0CC02091B900287FEA
:1037900081E090E0283211F480E090E091958195ED
:1037A0009109DF91CF911F910F9108950F931F936E
:1037B000CF93DF93EC0184E88093BC000E94A715AF
:1037C0008C018091BC0087FD0DC0CF3F8FEFD807E3
:1037D000C1F3C8010E949815C817D90790F78EEF5A
:1037E0009FEF03C08091BB0090E0DF91CF911F91CC
:1037F0000F91089584E98093BC000895AA1BBB1B18
:1038000051E107C0AA1FBB1FA617B70710F0A61BE0
:10381000B70B881F991F5A95A9F780959095BC0101
:10382000CD0108952F923F924F925F926F927F92B7
:103830008F929F92AF92BF92CF92DF92EF92FF92C0
:103840000F931F93CF93DF93CDB7DEB7CA1BDB0B6C
:103850000FB6F894DEBF0FBECDBF09942A88398811
:1038600048885F846E847D848C849B84AA84B98418
:10387000C884DF80EE80FD800C811B81AA81B98124
:10388000CE0FD11D0FB6F894DEBF0FBECDBFED0138
:1038900008958F929F92AF92BF92CF92DF92EF9254
:1038A000FF92CF93DF93EC01688179818A819B81BC
:1038B000611571058105910521F464E279ED8BE5CF
:1038C00097E02DE133EF41E050E00E94FD1C4901FB
:1038D0005A019B01AC01A7EAB1E40E941C1D6B01D7
:1038E0007C01ACEEB4EFA50194010E942A1DDC011D
:1038F000CB018C0D9D1DAE1DBF1DB7FF03C00197F1
:10390000A109B04888839983AA83BB839F77DF91FD
:10391000CF91FF90EF90DF90CF90BF90AF909F90AE
:103920008F9008950E94491C089580E091E00E94C4
:10393000491C0895A0E0B0E080930001909301013C
:10394000A0930201B09303010895DC01CB01FC01B7
:10395000F999FECF06C0F2BDE1BDF89A319600B4E8
:103960000D9241505040B8F70895F999FECF92BD9D
:1039700081BDF89A992780B50895A6E1B0E044E0AA
:1039800050E00C94A71CA8E1B0E042E050E00C9499
:10399000A71CDC01A40FB51F4150504048F0CB01DB
:1039A000840F951F2E910E94DA1C41505040D0F791
:1039B0000895262FF999FECF92BD81BDF89A0197FF
:1039C00000B4021639F01FBA20BD0FB6F894FA9A67
:1039D000F99A0FBE08950396272F0E94DA1C0E94C1
:1039E000D91C252F0E94DA1C242F0C94DA1C019676
:1039F000272F0E94DA1C0C94D91C052E97FB1EF46D
:103A000000940E94141D57FD07D00E942F1D07FC33
:103A100003D04EF40C94141D50954095309521958B
:103A20003F4F4F4F5F4F08959095809570956195EA
:103A30007F4F8F4F9F4F08950E94511DA59F900D5E
:103A4000B49F900DA49F800D911D11240895B7FF80
:103A50000C941C1D0E941C1D821B930B0895A1E257
:103A60001A2EAA1BBB1BFD010DC0AA1FBB1FEE1FF8
:103A7000FF1FA217B307E407F50720F0A21BB30B43
:103A8000E40BF50B661F771F881F991F1A9469F7BF
:103A900060957095809590959B01AC01BD01CF011B
:103AA0000895A29FB001B39FC001A39F700D811D17
:103AB0001124911DB29F700D811D1124911D089537
:103AC00097FB072E16F4009407D077FD09D00E94CB
:103AD000FE1B07FC05D03EF4909581959F4F0895FD
:103AE000709561957F4F0895EE0FFF1F0590F4913B
:103AF000E02D09940F931F93CF93DF9382309105AC
:103B000010F482E090E0E0919502F091960220E0BE
:103B100030E0A0E0B0E0309719F14081518102819E
:103B2000138148175907C8F08417950769F410974F
:103B300031F012960C93129713961C9327C00093A2
:103B400095021093960222C02115310519F04217F3
:103B5000530718F49A01BD01EF01DF01F801DBCF33
:103B600021153105F9F0281B390B2430310580F47B
:103B70008A819B816115710521F0FB01938382830A
:103B800004C09093960280939502FE01329644C041
:103B9000FE01E20FF31F8193919322503109398383
:103BA00028833AC02091930230919402232B41F450
:103BB00020910601309107013093940220939302E3
:103BC00020910401309105012115310541F42DB7F3
:103BD0003EB74091080150910901241B350BE0913B
:103BE0009302F0919402E217F307A0F42E1B3F0B0F
:103BF0002817390778F0AC014E5F5F4F241735075F
:103C000048F04E0F5F1F50939402409393028193AC
:103C1000919302C0E0E0F0E0CF01DF91CF911F91DE
:103C20000F910895CF93DF93009709F481C0FC01B1
:103C3000329713821282A0919502B091960210974A
:103C400081F420813181820F931F20919302309162
:103C500094022817390751F5F0939402E0939302E8
:103C600067C0ED0120E030E0CE17DF0740F44A8165
:103C70005B819E0141155105F1F0EA01F5CFD38337
:103C8000C28340815181840F951FC817D90759F409
:103C900088819981840F951F0296918380838A8100
:103CA0009B81938382832115310529F4F093960239
:103CB000E09395023DC0E901FB83EA834991599164
:103CC000C40FD51FEC17FD0761F480819181840F2B
:103CD000951F0296E90199838883828193819B8352
:103CE0008A83E0E0F0E012968D919C911397009703
:103CF00019F0FD01DC01F7CF8D919C9111979D0189
:103D00002E5F3F4F820F931F2091930230919402B8
:103D10002817390769F4309729F410929602109207
:103D2000950202C013821282B0939402A093930270
:103D3000DF91CF910895FB01DC0104C08D910190CA
:103D4000801921F441505040C8F7881B990B089501
:043D5000F894FFCF15
:103D54000100000000009702200001E414E714E3CE
:103D640014F30FEE0FED0F2000818283E200E900CF
:103D7400EA00B500B600B700CD008301CC008A018B
:103D84009201940121022302240225022602270221
:103D94002A02B300B4006F00700040226DCB04A966
:103DA400043C041D053605560536776F67522F41CE
:063DB400564C6F300000C8
:00000001FF
